{
	"data": {
		"bytecode": {
			"linkReferences": {},
			"object": "608060405234801561001057600080fd5b50610307806100206000396000f3fe608060405234801561001057600080fd5b50600436106100415760003560e01c80631b92bc2014610046578063b195c90214610076578063d02982cf14610094575b600080fd5b610060600480360381019061005b9190610164565b6100b2565b60405161006d919061022a565b60405180910390f35b61007e6100d6565b60405161008b919061022a565b60405180910390f35b61009c6100f6565b6040516100a9919061025b565b60405180910390f35b6060816100c6576100c1610107565b6100cf565b6100ce6100d6565b5b9050919050565b60606040518060600160405280602e8152602001610277602e9139905090565b60008054906101000a900460ff1681565b60606040518060600160405280602d81526020016102a5602d9139905090565b600080fd5b60008115159050919050565b6101418161012c565b811461014c57600080fd5b50565b60008135905061015e81610138565b92915050565b60006020828403121561017a57610179610127565b5b60006101888482850161014f565b91505092915050565b600081519050919050565b600082825260208201905092915050565b60005b838110156101cb5780820151818401526020810190506101b0565b838111156101da576000848401525b50505050565b6000601f19601f8301169050919050565b60006101fc82610191565b610206818561019c565b93506102168185602086016101ad565b61021f816101e0565b840191505092915050565b6000602082019050818103600083015261024481846101f1565b905092915050565b6102558161012c565b82525050565b6000602082019050610270600083018461024c565b9291505056fe48692c2077656c636f6d65206d656d6265722120506c65617365206c6f67696e20796f7572206163636f756e742e48692c2077656c636f6d6520757365722120506c65617365207369676e207570206e6577206163636f756e742ea2646970667358221220e4d97fc1918b2573e57b139a93676e8303a3605265d999af219f8c860708ef0264736f6c634300080d0033",
			"opcodes": "PUSH1 0x80 PUSH1 0x40 MSTORE CALLVALUE DUP1 ISZERO PUSH2 0x10 JUMPI PUSH1 0x0 DUP1 REVERT JUMPDEST POP PUSH2 0x307 DUP1 PUSH2 0x20 PUSH1 0x0 CODECOPY PUSH1 0x0 RETURN INVALID PUSH1 0x80 PUSH1 0x40 MSTORE CALLVALUE DUP1 ISZERO PUSH2 0x10 JUMPI PUSH1 0x0 DUP1 REVERT JUMPDEST POP PUSH1 0x4 CALLDATASIZE LT PUSH2 0x41 JUMPI PUSH1 0x0 CALLDATALOAD PUSH1 0xE0 SHR DUP1 PUSH4 0x1B92BC20 EQ PUSH2 0x46 JUMPI DUP1 PUSH4 0xB195C902 EQ PUSH2 0x76 JUMPI DUP1 PUSH4 0xD02982CF EQ PUSH2 0x94 JUMPI JUMPDEST PUSH1 0x0 DUP1 REVERT JUMPDEST PUSH2 0x60 PUSH1 0x4 DUP1 CALLDATASIZE SUB DUP2 ADD SWAP1 PUSH2 0x5B SWAP2 SWAP1 PUSH2 0x164 JUMP JUMPDEST PUSH2 0xB2 JUMP JUMPDEST PUSH1 0x40 MLOAD PUSH2 0x6D SWAP2 SWAP1 PUSH2 0x22A JUMP JUMPDEST PUSH1 0x40 MLOAD DUP1 SWAP2 SUB SWAP1 RETURN JUMPDEST PUSH2 0x7E PUSH2 0xD6 JUMP JUMPDEST PUSH1 0x40 MLOAD PUSH2 0x8B SWAP2 SWAP1 PUSH2 0x22A JUMP JUMPDEST PUSH1 0x40 MLOAD DUP1 SWAP2 SUB SWAP1 RETURN JUMPDEST PUSH2 0x9C PUSH2 0xF6 JUMP JUMPDEST PUSH1 0x40 MLOAD PUSH2 0xA9 SWAP2 SWAP1 PUSH2 0x25B JUMP JUMPDEST PUSH1 0x40 MLOAD DUP1 SWAP2 SUB SWAP1 RETURN JUMPDEST PUSH1 0x60 DUP2 PUSH2 0xC6 JUMPI PUSH2 0xC1 PUSH2 0x107 JUMP JUMPDEST PUSH2 0xCF JUMP JUMPDEST PUSH2 0xCE PUSH2 0xD6 JUMP JUMPDEST JUMPDEST SWAP1 POP SWAP2 SWAP1 POP JUMP JUMPDEST PUSH1 0x60 PUSH1 0x40 MLOAD DUP1 PUSH1 0x60 ADD PUSH1 0x40 MSTORE DUP1 PUSH1 0x2E DUP2 MSTORE PUSH1 0x20 ADD PUSH2 0x277 PUSH1 0x2E SWAP2 CODECOPY SWAP1 POP SWAP1 JUMP JUMPDEST PUSH1 0x0 DUP1 SLOAD SWAP1 PUSH2 0x100 EXP SWAP1 DIV PUSH1 0xFF AND DUP2 JUMP JUMPDEST PUSH1 0x60 PUSH1 0x40 MLOAD DUP1 PUSH1 0x60 ADD PUSH1 0x40 MSTORE DUP1 PUSH1 0x2D DUP2 MSTORE PUSH1 0x20 ADD PUSH2 0x2A5 PUSH1 0x2D SWAP2 CODECOPY SWAP1 POP SWAP1 JUMP JUMPDEST PUSH1 0x0 DUP1 REVERT JUMPDEST PUSH1 0x0 DUP2 ISZERO ISZERO SWAP1 POP SWAP2 SWAP1 POP JUMP JUMPDEST PUSH2 0x141 DUP2 PUSH2 0x12C JUMP JUMPDEST DUP2 EQ PUSH2 0x14C JUMPI PUSH1 0x0 DUP1 REVERT JUMPDEST POP JUMP JUMPDEST PUSH1 0x0 DUP2 CALLDATALOAD SWAP1 POP PUSH2 0x15E DUP2 PUSH2 0x138 JUMP JUMPDEST SWAP3 SWAP2 POP POP JUMP JUMPDEST PUSH1 0x0 PUSH1 0x20 DUP3 DUP5 SUB SLT ISZERO PUSH2 0x17A JUMPI PUSH2 0x179 PUSH2 0x127 JUMP JUMPDEST JUMPDEST PUSH1 0x0 PUSH2 0x188 DUP5 DUP3 DUP6 ADD PUSH2 0x14F JUMP JUMPDEST SWAP2 POP POP SWAP3 SWAP2 POP POP JUMP JUMPDEST PUSH1 0x0 DUP2 MLOAD SWAP1 POP SWAP2 SWAP1 POP JUMP JUMPDEST PUSH1 0x0 DUP3 DUP3 MSTORE PUSH1 0x20 DUP3 ADD SWAP1 POP SWAP3 SWAP2 POP POP JUMP JUMPDEST PUSH1 0x0 JUMPDEST DUP4 DUP2 LT ISZERO PUSH2 0x1CB JUMPI DUP1 DUP3 ADD MLOAD DUP2 DUP5 ADD MSTORE PUSH1 0x20 DUP2 ADD SWAP1 POP PUSH2 0x1B0 JUMP JUMPDEST DUP4 DUP2 GT ISZERO PUSH2 0x1DA JUMPI PUSH1 0x0 DUP5 DUP5 ADD MSTORE JUMPDEST POP POP POP POP JUMP JUMPDEST PUSH1 0x0 PUSH1 0x1F NOT PUSH1 0x1F DUP4 ADD AND SWAP1 POP SWAP2 SWAP1 POP JUMP JUMPDEST PUSH1 0x0 PUSH2 0x1FC DUP3 PUSH2 0x191 JUMP JUMPDEST PUSH2 0x206 DUP2 DUP6 PUSH2 0x19C JUMP JUMPDEST SWAP4 POP PUSH2 0x216 DUP2 DUP6 PUSH1 0x20 DUP7 ADD PUSH2 0x1AD JUMP JUMPDEST PUSH2 0x21F DUP2 PUSH2 0x1E0 JUMP JUMPDEST DUP5 ADD SWAP2 POP POP SWAP3 SWAP2 POP POP JUMP JUMPDEST PUSH1 0x0 PUSH1 0x20 DUP3 ADD SWAP1 POP DUP2 DUP2 SUB PUSH1 0x0 DUP4 ADD MSTORE PUSH2 0x244 DUP2 DUP5 PUSH2 0x1F1 JUMP JUMPDEST SWAP1 POP SWAP3 SWAP2 POP POP JUMP JUMPDEST PUSH2 0x255 DUP2 PUSH2 0x12C JUMP JUMPDEST DUP3 MSTORE POP POP JUMP JUMPDEST PUSH1 0x0 PUSH1 0x20 DUP3 ADD SWAP1 POP PUSH2 0x270 PUSH1 0x0 DUP4 ADD DUP5 PUSH2 0x24C JUMP JUMPDEST SWAP3 SWAP2 POP POP JUMP INVALID BASEFEE PUSH10 0x2C2077656C636F6D6520 PUSH14 0x656D6265722120506C6561736520 PUSH13 0x6F67696E20796F757220616363 PUSH16 0x756E742E48692C2077656C636F6D6520 PUSH22 0x7365722120506C65617365207369676E207570206E65 PUSH24 0x206163636F756E742EA2646970667358221220E4D97FC191 DUP12 0x25 PUSH20 0xE57B139A93676E8303A3605265D999AF219F8C86 SMOD ADDMOD 0xEF MUL PUSH5 0x736F6C6343 STOP ADDMOD 0xD STOP CALLER "
		},
		"gasEstimates": {
			"creation": {
				"codeDepositCost": "155000",
				"executionCost": "202",
				"totalCost": "155202"
			},
			"external": {
				"isMember()": "2490",
				"memberMessage(bool)": "infinite",
				"welcomeMessage()": "infinite"
			}
		},
		"methodIdentifiers": {
			"isMember()": "d02982cf",
			"memberMessage(bool)": "1b92bc20",
			"welcomeMessage()": "b195c902"
		}
	},
	"abi": [
		{
			"inputs": [],
			"name": "isMember",
			"outputs": [
				{
					"internalType": "bool",
					"name": "",
					"type": "bool"
				}
			],
			"stateMutability": "view",
			"type": "function"
		},
		{
			"inputs": [
				{
					"internalType": "bool",
					"name": "isMember",
					"type": "bool"
				}
			],
			"name": "memberMessage",
			"outputs": [
				{
					"internalType": "string",
					"name": "",
					"type": "string"
				}
			],
			"stateMutability": "pure",
			"type": "function"
		},
		{
			"inputs": [],
			"name": "welcomeMessage",
			"outputs": [
				{
					"internalType": "string",
					"name": "",
					"type": "string"
				}
			],
			"stateMutability": "pure",
			"type": "function"
		}
	]
}