{
	"data": {
		"bytecode": {
			"linkReferences": {},
			"object": "608060405234801561001057600080fd5b506101fc806100206000396000f3fe608060405234801561001057600080fd5b50600436106100365760003560e01c8063b195c9021461003b578063d02982cf14610059575b600080fd5b610043610077565b6040516100509190610141565b60405180910390f35b610061610097565b60405161006e919061017e565b60405180910390f35b60606040518060600160405280602d815260200161019a602d9139905090565b60008054906101000a900460ff1681565b600081519050919050565b600082825260208201905092915050565b60005b838110156100e25780820151818401526020810190506100c7565b838111156100f1576000848401525b50505050565b6000601f19601f8301169050919050565b6000610113826100a8565b61011d81856100b3565b935061012d8185602086016100c4565b610136816100f7565b840191505092915050565b6000602082019050818103600083015261015b8184610108565b905092915050565b60008115159050919050565b61017881610163565b82525050565b6000602082019050610193600083018461016f565b9291505056fe48692c2077656c636f6d6520757365722120506c65617365207369676e207570206e6577206163636f756e742ea264697066735822122089a2acde92019a8f572aa17c7a9a8be45e397e8ef4e3882010adf07a7ccc89bc64736f6c634300080d0033",
			"opcodes": "PUSH1 0x80 PUSH1 0x40 MSTORE CALLVALUE DUP1 ISZERO PUSH2 0x10 JUMPI PUSH1 0x0 DUP1 REVERT JUMPDEST POP PUSH2 0x1FC DUP1 PUSH2 0x20 PUSH1 0x0 CODECOPY PUSH1 0x0 RETURN INVALID PUSH1 0x80 PUSH1 0x40 MSTORE CALLVALUE DUP1 ISZERO PUSH2 0x10 JUMPI PUSH1 0x0 DUP1 REVERT JUMPDEST POP PUSH1 0x4 CALLDATASIZE LT PUSH2 0x36 JUMPI PUSH1 0x0 CALLDATALOAD PUSH1 0xE0 SHR DUP1 PUSH4 0xB195C902 EQ PUSH2 0x3B JUMPI DUP1 PUSH4 0xD02982CF EQ PUSH2 0x59 JUMPI JUMPDEST PUSH1 0x0 DUP1 REVERT JUMPDEST PUSH2 0x43 PUSH2 0x77 JUMP JUMPDEST PUSH1 0x40 MLOAD PUSH2 0x50 SWAP2 SWAP1 PUSH2 0x141 JUMP JUMPDEST PUSH1 0x40 MLOAD DUP1 SWAP2 SUB SWAP1 RETURN JUMPDEST PUSH2 0x61 PUSH2 0x97 JUMP JUMPDEST PUSH1 0x40 MLOAD PUSH2 0x6E SWAP2 SWAP1 PUSH2 0x17E JUMP JUMPDEST PUSH1 0x40 MLOAD DUP1 SWAP2 SUB SWAP1 RETURN JUMPDEST PUSH1 0x60 PUSH1 0x40 MLOAD DUP1 PUSH1 0x60 ADD PUSH1 0x40 MSTORE DUP1 PUSH1 0x2D DUP2 MSTORE PUSH1 0x20 ADD PUSH2 0x19A PUSH1 0x2D SWAP2 CODECOPY SWAP1 POP SWAP1 JUMP JUMPDEST PUSH1 0x0 DUP1 SLOAD SWAP1 PUSH2 0x100 EXP SWAP1 DIV PUSH1 0xFF AND DUP2 JUMP JUMPDEST PUSH1 0x0 DUP2 MLOAD SWAP1 POP SWAP2 SWAP1 POP JUMP JUMPDEST PUSH1 0x0 DUP3 DUP3 MSTORE PUSH1 0x20 DUP3 ADD SWAP1 POP SWAP3 SWAP2 POP POP JUMP JUMPDEST PUSH1 0x0 JUMPDEST DUP4 DUP2 LT ISZERO PUSH2 0xE2 JUMPI DUP1 DUP3 ADD MLOAD DUP2 DUP5 ADD MSTORE PUSH1 0x20 DUP2 ADD SWAP1 POP PUSH2 0xC7 JUMP JUMPDEST DUP4 DUP2 GT ISZERO PUSH2 0xF1 JUMPI PUSH1 0x0 DUP5 DUP5 ADD MSTORE JUMPDEST POP POP POP POP JUMP JUMPDEST PUSH1 0x0 PUSH1 0x1F NOT PUSH1 0x1F DUP4 ADD AND SWAP1 POP SWAP2 SWAP1 POP JUMP JUMPDEST PUSH1 0x0 PUSH2 0x113 DUP3 PUSH2 0xA8 JUMP JUMPDEST PUSH2 0x11D DUP2 DUP6 PUSH2 0xB3 JUMP JUMPDEST SWAP4 POP PUSH2 0x12D DUP2 DUP6 PUSH1 0x20 DUP7 ADD PUSH2 0xC4 JUMP JUMPDEST PUSH2 0x136 DUP2 PUSH2 0xF7 JUMP JUMPDEST DUP5 ADD SWAP2 POP POP SWAP3 SWAP2 POP POP JUMP JUMPDEST PUSH1 0x0 PUSH1 0x20 DUP3 ADD SWAP1 POP DUP2 DUP2 SUB PUSH1 0x0 DUP4 ADD MSTORE PUSH2 0x15B DUP2 DUP5 PUSH2 0x108 JUMP JUMPDEST SWAP1 POP SWAP3 SWAP2 POP POP JUMP JUMPDEST PUSH1 0x0 DUP2 ISZERO ISZERO SWAP1 POP SWAP2 SWAP1 POP JUMP JUMPDEST PUSH2 0x178 DUP2 PUSH2 0x163 JUMP JUMPDEST DUP3 MSTORE POP POP JUMP JUMPDEST PUSH1 0x0 PUSH1 0x20 DUP3 ADD SWAP1 POP PUSH2 0x193 PUSH1 0x0 DUP4 ADD DUP5 PUSH2 0x16F JUMP JUMPDEST SWAP3 SWAP2 POP POP JUMP INVALID BASEFEE PUSH10 0x2C2077656C636F6D6520 PUSH22 0x7365722120506C65617365207369676E207570206E65 PUSH24 0x206163636F756E742EA264697066735822122089A2ACDE92 ADD SWAP11 DUP16 JUMPI 0x2A LOG1 PUSH29 0x7A9A8BE45E397E8EF4E3882010ADF07A7CCC89BC64736F6C634300080D STOP CALLER "
		},
		"gasEstimates": {
			"creation": {
				"codeDepositCost": "101600",
				"executionCost": "147",
				"totalCost": "101747"
			},
			"external": {
				"isMember()": "2468",
				"welcomeMessage()": "infinite"
			}
		},
		"methodIdentifiers": {
			"isMember()": "d02982cf",
			"welcomeMessage()": "b195c902"
		}
	},
	"abi": [
		{
			"inputs": [],
			"name": "isMember",
			"outputs": [
				{
					"internalType": "bool",
					"name": "",
					"type": "bool"
				}
			],
			"stateMutability": "view",
			"type": "function"
		},
		{
			"inputs": [],
			"name": "welcomeMessage",
			"outputs": [
				{
					"internalType": "string",
					"name": "",
					"type": "string"
				}
			],
			"stateMutability": "pure",
			"type": "function"
		}
	]
}